{
  "_format": "hh-sol-artifact-1",
  "contractName": "MusicNFTMarketplace",
  "sourceName": "src/backend/contracts/MusicNFTMarketplace.sol",
  "abi": [
    {
      "inputs": [
        {
          "internalType": "uint256",
          "name": "_royaltyFee",
          "type": "uint256"
        },
        {
          "internalType": "address",
          "name": "_artist",
          "type": "address"
        },
        {
          "internalType": "uint256[]",
          "name": "_prices",
          "type": "uint256[]"
        }
      ],
      "stateMutability": "payable",
      "type": "constructor"
    },
    {
      "anonymous": false,
      "inputs": [
        {
          "indexed": true,
          "internalType": "address",
          "name": "owner",
          "type": "address"
        },
        {
          "indexed": true,
          "internalType": "address",
          "name": "approved",
          "type": "address"
        },
        {
          "indexed": true,
          "internalType": "uint256",
          "name": "tokenId",
          "type": "uint256"
        }
      ],
      "name": "Approval",
      "type": "event"
    },
    {
      "anonymous": false,
      "inputs": [
        {
          "indexed": true,
          "internalType": "address",
          "name": "owner",
          "type": "address"
        },
        {
          "indexed": true,
          "internalType": "address",
          "name": "operator",
          "type": "address"
        },
        {
          "indexed": false,
          "internalType": "bool",
          "name": "approved",
          "type": "bool"
        }
      ],
      "name": "ApprovalForAll",
      "type": "event"
    },
    {
      "anonymous": false,
      "inputs": [
        {
          "indexed": true,
          "internalType": "uint256",
          "name": "tokenId",
          "type": "uint256"
        },
        {
          "indexed": true,
          "internalType": "address",
          "name": "seller",
          "type": "address"
        },
        {
          "indexed": false,
          "internalType": "address",
          "name": "buyer",
          "type": "address"
        },
        {
          "indexed": false,
          "internalType": "uint256",
          "name": "price",
          "type": "uint256"
        }
      ],
      "name": "MarketItemBought",
      "type": "event"
    },
    {
      "anonymous": false,
      "inputs": [
        {
          "indexed": true,
          "internalType": "uint256",
          "name": "tokenId",
          "type": "uint256"
        },
        {
          "indexed": true,
          "internalType": "address",
          "name": "seller",
          "type": "address"
        },
        {
          "indexed": false,
          "internalType": "uint256",
          "name": "price",
          "type": "uint256"
        }
      ],
      "name": "MarketItemRelisted",
      "type": "event"
    },
    {
      "anonymous": false,
      "inputs": [
        {
          "indexed": true,
          "internalType": "address",
          "name": "previousOwner",
          "type": "address"
        },
        {
          "indexed": true,
          "internalType": "address",
          "name": "newOwner",
          "type": "address"
        }
      ],
      "name": "OwnershipTransferred",
      "type": "event"
    },
    {
      "anonymous": false,
      "inputs": [
        {
          "indexed": true,
          "internalType": "address",
          "name": "from",
          "type": "address"
        },
        {
          "indexed": true,
          "internalType": "address",
          "name": "to",
          "type": "address"
        },
        {
          "indexed": true,
          "internalType": "uint256",
          "name": "tokenId",
          "type": "uint256"
        }
      ],
      "name": "Transfer",
      "type": "event"
    },
    {
      "inputs": [
        {
          "internalType": "address",
          "name": "to",
          "type": "address"
        },
        {
          "internalType": "uint256",
          "name": "tokenId",
          "type": "uint256"
        }
      ],
      "name": "approve",
      "outputs": [],
      "stateMutability": "nonpayable",
      "type": "function"
    },
    {
      "inputs": [],
      "name": "artist",
      "outputs": [
        {
          "internalType": "address",
          "name": "",
          "type": "address"
        }
      ],
      "stateMutability": "view",
      "type": "function"
    },
    {
      "inputs": [
        {
          "internalType": "address",
          "name": "owner",
          "type": "address"
        }
      ],
      "name": "balanceOf",
      "outputs": [
        {
          "internalType": "uint256",
          "name": "",
          "type": "uint256"
        }
      ],
      "stateMutability": "view",
      "type": "function"
    },
    {
      "inputs": [],
      "name": "baseExtension",
      "outputs": [
        {
          "internalType": "string",
          "name": "",
          "type": "string"
        }
      ],
      "stateMutability": "view",
      "type": "function"
    },
    {
      "inputs": [],
      "name": "baseURI",
      "outputs": [
        {
          "internalType": "string",
          "name": "",
          "type": "string"
        }
      ],
      "stateMutability": "view",
      "type": "function"
    },
    {
      "inputs": [
        {
          "internalType": "uint256",
          "name": "_tokenId",
          "type": "uint256"
        }
      ],
      "name": "buyToken",
      "outputs": [],
      "stateMutability": "payable",
      "type": "function"
    },
    {
      "inputs": [],
      "name": "getAllUnsoldTokens",
      "outputs": [
        {
          "components": [
            {
              "internalType": "uint256",
              "name": "tokenId",
              "type": "uint256"
            },
            {
              "internalType": "address payable",
              "name": "seller",
              "type": "address"
            },
            {
              "internalType": "uint256",
              "name": "price",
              "type": "uint256"
            }
          ],
          "internalType": "struct MusicNFTMarketplace.MarketItem[]",
          "name": "",
          "type": "tuple[]"
        }
      ],
      "stateMutability": "view",
      "type": "function"
    },
    {
      "inputs": [
        {
          "internalType": "uint256",
          "name": "tokenId",
          "type": "uint256"
        }
      ],
      "name": "getApproved",
      "outputs": [
        {
          "internalType": "address",
          "name": "",
          "type": "address"
        }
      ],
      "stateMutability": "view",
      "type": "function"
    },
    {
      "inputs": [],
      "name": "getMyTokens",
      "outputs": [
        {
          "components": [
            {
              "internalType": "uint256",
              "name": "tokenId",
              "type": "uint256"
            },
            {
              "internalType": "address payable",
              "name": "seller",
              "type": "address"
            },
            {
              "internalType": "uint256",
              "name": "price",
              "type": "uint256"
            }
          ],
          "internalType": "struct MusicNFTMarketplace.MarketItem[]",
          "name": "",
          "type": "tuple[]"
        }
      ],
      "stateMutability": "view",
      "type": "function"
    },
    {
      "inputs": [
        {
          "internalType": "address",
          "name": "owner",
          "type": "address"
        },
        {
          "internalType": "address",
          "name": "operator",
          "type": "address"
        }
      ],
      "name": "isApprovedForAll",
      "outputs": [
        {
          "internalType": "bool",
          "name": "",
          "type": "bool"
        }
      ],
      "stateMutability": "view",
      "type": "function"
    },
    {
      "inputs": [
        {
          "internalType": "uint256",
          "name": "",
          "type": "uint256"
        }
      ],
      "name": "marketItems",
      "outputs": [
        {
          "internalType": "uint256",
          "name": "tokenId",
          "type": "uint256"
        },
        {
          "internalType": "address payable",
          "name": "seller",
          "type": "address"
        },
        {
          "internalType": "uint256",
          "name": "price",
          "type": "uint256"
        }
      ],
      "stateMutability": "view",
      "type": "function"
    },
    {
      "inputs": [],
      "name": "name",
      "outputs": [
        {
          "internalType": "string",
          "name": "",
          "type": "string"
        }
      ],
      "stateMutability": "view",
      "type": "function"
    },
    {
      "inputs": [],
      "name": "owner",
      "outputs": [
        {
          "internalType": "address",
          "name": "",
          "type": "address"
        }
      ],
      "stateMutability": "view",
      "type": "function"
    },
    {
      "inputs": [
        {
          "internalType": "uint256",
          "name": "tokenId",
          "type": "uint256"
        }
      ],
      "name": "ownerOf",
      "outputs": [
        {
          "internalType": "address",
          "name": "",
          "type": "address"
        }
      ],
      "stateMutability": "view",
      "type": "function"
    },
    {
      "inputs": [],
      "name": "renounceOwnership",
      "outputs": [],
      "stateMutability": "nonpayable",
      "type": "function"
    },
    {
      "inputs": [
        {
          "internalType": "uint256",
          "name": "_tokenId",
          "type": "uint256"
        },
        {
          "internalType": "uint256",
          "name": "_price",
          "type": "uint256"
        }
      ],
      "name": "resellToken",
      "outputs": [],
      "stateMutability": "payable",
      "type": "function"
    },
    {
      "inputs": [],
      "name": "royaltyFee",
      "outputs": [
        {
          "internalType": "uint256",
          "name": "",
          "type": "uint256"
        }
      ],
      "stateMutability": "view",
      "type": "function"
    },
    {
      "inputs": [
        {
          "internalType": "address",
          "name": "from",
          "type": "address"
        },
        {
          "internalType": "address",
          "name": "to",
          "type": "address"
        },
        {
          "internalType": "uint256",
          "name": "tokenId",
          "type": "uint256"
        }
      ],
      "name": "safeTransferFrom",
      "outputs": [],
      "stateMutability": "nonpayable",
      "type": "function"
    },
    {
      "inputs": [
        {
          "internalType": "address",
          "name": "from",
          "type": "address"
        },
        {
          "internalType": "address",
          "name": "to",
          "type": "address"
        },
        {
          "internalType": "uint256",
          "name": "tokenId",
          "type": "uint256"
        },
        {
          "internalType": "bytes",
          "name": "_data",
          "type": "bytes"
        }
      ],
      "name": "safeTransferFrom",
      "outputs": [],
      "stateMutability": "nonpayable",
      "type": "function"
    },
    {
      "inputs": [
        {
          "internalType": "address",
          "name": "operator",
          "type": "address"
        },
        {
          "internalType": "bool",
          "name": "approved",
          "type": "bool"
        }
      ],
      "name": "setApprovalForAll",
      "outputs": [],
      "stateMutability": "nonpayable",
      "type": "function"
    },
    {
      "inputs": [
        {
          "internalType": "bytes4",
          "name": "interfaceId",
          "type": "bytes4"
        }
      ],
      "name": "supportsInterface",
      "outputs": [
        {
          "internalType": "bool",
          "name": "",
          "type": "bool"
        }
      ],
      "stateMutability": "view",
      "type": "function"
    },
    {
      "inputs": [],
      "name": "symbol",
      "outputs": [
        {
          "internalType": "string",
          "name": "",
          "type": "string"
        }
      ],
      "stateMutability": "view",
      "type": "function"
    },
    {
      "inputs": [
        {
          "internalType": "uint256",
          "name": "tokenId",
          "type": "uint256"
        }
      ],
      "name": "tokenURI",
      "outputs": [
        {
          "internalType": "string",
          "name": "",
          "type": "string"
        }
      ],
      "stateMutability": "view",
      "type": "function"
    },
    {
      "inputs": [
        {
          "internalType": "address",
          "name": "from",
          "type": "address"
        },
        {
          "internalType": "address",
          "name": "to",
          "type": "address"
        },
        {
          "internalType": "uint256",
          "name": "tokenId",
          "type": "uint256"
        }
      ],
      "name": "transferFrom",
      "outputs": [],
      "stateMutability": "nonpayable",
      "type": "function"
    },
    {
      "inputs": [
        {
          "internalType": "address",
          "name": "newOwner",
          "type": "address"
        }
      ],
      "name": "transferOwnership",
      "outputs": [],
      "stateMutability": "nonpayable",
      "type": "function"
    },
    {
      "inputs": [
        {
          "internalType": "uint256",
          "name": "_royaltyFee",
          "type": "uint256"
        }
      ],
      "name": "updateRoyaltyFee",
      "outputs": [],
      "stateMutability": "nonpayable",
      "type": "function"
    }
  ],
  "bytecode": "0x6080604052604051806080016040528060598152602001620047d460599139600790805190602001906200003592919062000712565b506040518060400160405280600581526020017f2e6a736f6e000000000000000000000000000000000000000000000000000000815250600890805190602001906200008392919062000712565b506040516200482d3803806200482d8339818101604052810190620000a9919062000892565b6040518060400160405280600681526020017f44417070466900000000000000000000000000000000000000000000000000008152506040518060400160405280600481526020017f444150500000000000000000000000000000000000000000000000000000000081525081600090805190602001906200012d92919062000712565b5080600190805190602001906200014692919062000712565b505050620001696200015d620003d460201b60201c565b620003dc60201b60201c565b82815162000178919062000aeb565b341015620001bd576040517f08c379a0000000000000000000000000000000000000000000000000000000008152600401620001b490620009e1565b60405180910390fd5b82600a8190555081600960006101000a81548173ffffffffffffffffffffffffffffffffffffffff021916908373ffffffffffffffffffffffffffffffffffffffff16021790555060005b81518160ff161015620003ca576000828260ff168151811062000254577f4e487b7100000000000000000000000000000000000000000000000000000000600052603260045260246000fd5b6020026020010151116200029f576040517f08c379a000000000000000000000000000000000000000000000000000000000815260040162000296906200099d565b60405180910390fd5b620002b4308260ff16620004a260201b60201c565b600b60405180606001604052808360ff1681526020013373ffffffffffffffffffffffffffffffffffffffff168152602001848460ff168151811062000323577f4e487b7100000000000000000000000000000000000000000000000000000000600052603260045260246000fd5b602002602001015181525090806001815401808255809150506001900390600052602060002090600302016000909190919091506000820151816000015560208201518160010160006101000a81548173ffffffffffffffffffffffffffffffffffffffff021916908373ffffffffffffffffffffffffffffffffffffffff1602179055506040820151816002015550508080620003c19062000c03565b91505062000208565b5050505062000df4565b600033905090565b6000600660009054906101000a900473ffffffffffffffffffffffffffffffffffffffff16905081600660006101000a81548173ffffffffffffffffffffffffffffffffffffffff021916908373ffffffffffffffffffffffffffffffffffffffff1602179055508173ffffffffffffffffffffffffffffffffffffffff168173ffffffffffffffffffffffffffffffffffffffff167f8be0079c531659141344cd1fd0a4f28419497f9722a3daafe3b4186f6b6457e060405160405180910390a35050565b600073ffffffffffffffffffffffffffffffffffffffff168273ffffffffffffffffffffffffffffffffffffffff16141562000515576040517f08c379a00000000000000000000000000000000000000000000000000000000081526004016200050c9062000a03565b60405180910390fd5b62000526816200069c60201b60201c565b1562000569576040517f08c379a00000000000000000000000000000000000000000000000000000000081526004016200056090620009bf565b60405180910390fd5b6200057d600083836200070860201b60201c565b6001600360008473ffffffffffffffffffffffffffffffffffffffff1673ffffffffffffffffffffffffffffffffffffffff1681526020019081526020016000206000828254620005cf919062000a8e565b92505081905550816002600083815260200190815260200160002060006101000a81548173ffffffffffffffffffffffffffffffffffffffff021916908373ffffffffffffffffffffffffffffffffffffffff160217905550808273ffffffffffffffffffffffffffffffffffffffff16600073ffffffffffffffffffffffffffffffffffffffff167fddf252ad1be2c89b69c2b068fc378daa952ba7f163c4a11628f55a4df523b3ef60405160405180910390a462000698600083836200070d60201b60201c565b5050565b60008073ffffffffffffffffffffffffffffffffffffffff166002600084815260200190815260200160002060009054906101000a900473ffffffffffffffffffffffffffffffffffffffff1673ffffffffffffffffffffffffffffffffffffffff1614159050919050565b505050565b505050565b828054620007209062000b97565b90600052602060002090601f01602090048101928262000744576000855562000790565b82601f106200075f57805160ff191683800117855562000790565b8280016001018555821562000790579182015b828111156200078f57825182559160200191906001019062000772565b5b5090506200079f9190620007a3565b5090565b5b80821115620007be576000816000905550600101620007a4565b5090565b6000620007d9620007d38462000a4e565b62000a25565b90508083825260208201905082856020860282011115620007f957600080fd5b60005b858110156200082d57816200081288826200087b565b845260208401935060208301925050600181019050620007fc565b5050509392505050565b600081519050620008488162000dc0565b92915050565b600082601f8301126200086057600080fd5b815162000872848260208601620007c2565b91505092915050565b6000815190506200088c8162000dda565b92915050565b600080600060608486031215620008a857600080fd5b6000620008b8868287016200087b565b9350506020620008cb8682870162000837565b925050604084015167ffffffffffffffff811115620008e957600080fd5b620008f7868287016200084e565b9150509250925092565b60006200091060118362000a7d565b91506200091d8262000cd0565b602082019050919050565b600062000937601c8362000a7d565b9150620009448262000cf9565b602082019050919050565b60006200095e60468362000a7d565b91506200096b8262000d22565b606082019050919050565b60006200098560208362000a7d565b9150620009928262000d97565b602082019050919050565b60006020820190508181036000830152620009b88162000901565b9050919050565b60006020820190508181036000830152620009da8162000928565b9050919050565b60006020820190508181036000830152620009fc816200094f565b9050919050565b6000602082019050818103600083015262000a1e8162000976565b9050919050565b600062000a3162000a44565b905062000a3f828262000bcd565b919050565b6000604051905090565b600067ffffffffffffffff82111562000a6c5762000a6b62000c90565b5b602082029050602081019050919050565b600082825260208201905092915050565b600062000a9b8262000b80565b915062000aa88362000b80565b9250827fffffffffffffffffffffffffffffffffffffffffffffffffffffffffffffffff0382111562000ae05762000adf62000c32565b5b828201905092915050565b600062000af88262000b80565b915062000b058362000b80565b9250817fffffffffffffffffffffffffffffffffffffffffffffffffffffffffffffffff048311821515161562000b415762000b4062000c32565b5b828202905092915050565b600062000b598262000b60565b9050919050565b600073ffffffffffffffffffffffffffffffffffffffff82169050919050565b6000819050919050565b600060ff82169050919050565b6000600282049050600182168062000bb057607f821691505b6020821081141562000bc75762000bc662000c61565b5b50919050565b62000bd88262000cbf565b810181811067ffffffffffffffff8211171562000bfa5762000bf962000c90565b5b80604052505050565b600062000c108262000b8a565b915060ff82141562000c275762000c2662000c32565b5b600182019050919050565b7f4e487b7100000000000000000000000000000000000000000000000000000000600052601160045260246000fd5b7f4e487b7100000000000000000000000000000000000000000000000000000000600052602260045260246000fd5b7f4e487b7100000000000000000000000000000000000000000000000000000000600052604160045260246000fd5b6000601f19601f8301169050919050565b7f5072696365206d757374206265203e2030000000000000000000000000000000600082015250565b7f4552433732313a20746f6b656e20616c7265616479206d696e74656400000000600082015250565b7f4465706c6f796572206d7573742070617920726f79616c74792066656520666f60008201527f72206561636820746f6b656e206c697374656e206f6e20746865206d61726b6560208201527f74706c6163650000000000000000000000000000000000000000000000000000604082015250565b7f4552433732313a206d696e7420746f20746865207a65726f2061646472657373600082015250565b62000dcb8162000b4c565b811462000dd757600080fd5b50565b62000de58162000b80565b811462000df157600080fd5b50565b6139d08062000e046000396000f3fe6080604052600436106101815760003560e01c806370a08231116100d1578063b88d4fde1161008a578063c87b56dd11610064578063c87b56dd14610565578063e219fc75146105a2578063e985e9c5146105be578063f2fde38b146105fb57610181565b8063b88d4fde146104e6578063b8997a971461050f578063c66828621461053a57610181565b806370a08231146103e8578063715018a614610425578063767dd0761461043c5780638da5cb5b1461046757806395d89b4114610492578063a22cb465146104bd57610181565b806342842e0e1161013e57806351f28e141161011857806351f28e14146103165780635b3b136a146103555780636352211e146103805780636c0360eb146103bd57610181565b806342842e0e1461029957806343bc1612146102c25780634e83be47146102ed57610181565b806301ffc9a71461018657806306fdde03146101c3578063081812fc146101ee578063095ea7b31461022b57806323b872dd146102545780632d296bf11461027d575b600080fd5b34801561019257600080fd5b506101ad60048036038101906101a89190612843565b610624565b6040516101ba9190612dd8565b60405180910390f35b3480156101cf57600080fd5b506101d8610706565b6040516101e59190612df3565b60405180910390f35b3480156101fa57600080fd5b5061021560048036038101906102109190612895565b610798565b6040516102229190612d26565b60405180910390f35b34801561023757600080fd5b50610252600480360381019061024d9190612807565b61081d565b005b34801561026057600080fd5b5061027b60048036038101906102769190612701565b610935565b005b61029760048036038101906102929190612895565b610995565b005b3480156102a557600080fd5b506102c060048036038101906102bb9190612701565b610c35565b005b3480156102ce57600080fd5b506102d7610c55565b6040516102e49190612d26565b60405180910390f35b3480156102f957600080fd5b50610314600480360381019061030f9190612895565b610c7b565b005b34801561032257600080fd5b5061033d60048036038101906103389190612895565b610d01565b60405161034c93929190613050565b60405180910390f35b34801561036157600080fd5b5061036a610d5b565b6040516103779190612db6565b60405180910390f35b34801561038c57600080fd5b506103a760048036038101906103a29190612895565b610f72565b6040516103b49190612d26565b60405180910390f35b3480156103c957600080fd5b506103d2611024565b6040516103df9190612df3565b60405180910390f35b3480156103f457600080fd5b5061040f600480360381019061040a919061269c565b6110b2565b60405161041c9190613035565b60405180910390f35b34801561043157600080fd5b5061043a61116a565b005b34801561044857600080fd5b506104516111f2565b60405161045e9190612db6565b60405180910390f35b34801561047357600080fd5b5061047c61146c565b6040516104899190612d26565b60405180910390f35b34801561049e57600080fd5b506104a7611496565b6040516104b49190612df3565b60405180910390f35b3480156104c957600080fd5b506104e460048036038101906104df91906127cb565b611528565b005b3480156104f257600080fd5b5061050d60048036038101906105089190612750565b61153e565b005b34801561051b57600080fd5b506105246115a0565b6040516105319190613035565b60405180910390f35b34801561054657600080fd5b5061054f6115a6565b60405161055c9190612df3565b60405180910390f35b34801561057157600080fd5b5061058c60048036038101906105879190612895565b611634565b6040516105999190612df3565b60405180910390f35b6105bc60048036038101906105b791906128be565b6116db565b005b3480156105ca57600080fd5b506105e560048036038101906105e091906126c5565b61189a565b6040516105f29190612dd8565b60405180910390f35b34801561060757600080fd5b50610622600480360381019061061d919061269c565b61192e565b005b60007f80ac58cd000000000000000000000000000000000000000000000000000000007bffffffffffffffffffffffffffffffffffffffffffffffffffffffff1916827bffffffffffffffffffffffffffffffffffffffffffffffffffffffff191614806106ef57507f5b5e139f000000000000000000000000000000000000000000000000000000007bffffffffffffffffffffffffffffffffffffffffffffffffffffffff1916827bffffffffffffffffffffffffffffffffffffffffffffffffffffffff1916145b806106ff57506106fe82611a26565b5b9050919050565b606060008054610715906132e9565b80601f0160208091040260200160405190810160405280929190818152602001828054610741906132e9565b801561078e5780601f106107635761010080835404028352916020019161078e565b820191906000526020600020905b81548152906001019060200180831161077157829003601f168201915b5050505050905090565b60006107a382611a90565b6107e2576040517f08c379a00000000000000000000000000000000000000000000000000000000081526004016107d990612f95565b60405180910390fd5b6004600083815260200190815260200160002060009054906101000a900473ffffffffffffffffffffffffffffffffffffffff169050919050565b600061082882610f72565b90508073ffffffffffffffffffffffffffffffffffffffff168373ffffffffffffffffffffffffffffffffffffffff161415610899576040517f08c379a000000000000000000000000000000000000000000000000000000000815260040161089090612ff5565b60405180910390fd5b8073ffffffffffffffffffffffffffffffffffffffff166108b8611afc565b73ffffffffffffffffffffffffffffffffffffffff1614806108e757506108e6816108e1611afc565b61189a565b5b610926576040517f08c379a000000000000000000000000000000000000000000000000000000000815260040161091d90612f35565b60405180910390fd5b6109308383611b04565b505050565b610946610940611afc565b82611bbd565b610985576040517f08c379a000000000000000000000000000000000000000000000000000000000815260040161097c90613015565b60405180910390fd5b610990838383611c9b565b505050565b6000600b82815481106109d1577f4e487b7100000000000000000000000000000000000000000000000000000000600052603260045260246000fd5b90600052602060002090600302016002015490506000600b8381548110610a21577f4e487b7100000000000000000000000000000000000000000000000000000000600052603260045260246000fd5b906000526020600020906003020160010160009054906101000a900473ffffffffffffffffffffffffffffffffffffffff169050813414610a97576040517f08c379a0000000000000000000000000000000000000000000000000000000008152600401610a8e90612f15565b60405180910390fd5b6000600b8481548110610ad3577f4e487b7100000000000000000000000000000000000000000000000000000000600052603260045260246000fd5b906000526020600020906003020160010160006101000a81548173ffffffffffffffffffffffffffffffffffffffff021916908373ffffffffffffffffffffffffffffffffffffffff160217905550610b2d303385611c9b565b600960009054906101000a900473ffffffffffffffffffffffffffffffffffffffff1673ffffffffffffffffffffffffffffffffffffffff166108fc600a549081150290604051600060405180830381858888f19350505050158015610b97573d6000803e3d6000fd5b508073ffffffffffffffffffffffffffffffffffffffff166108fc349081150290604051600060405180830381858888f19350505050158015610bde573d6000803e3d6000fd5b508073ffffffffffffffffffffffffffffffffffffffff16837fd356b8423ef89ccba8e4f1dbeccc60b41825fd97d432f2e6a6dbd11ae6ecec113385604051610c28929190612d8d565b60405180910390a3505050565b610c508383836040518060200160405280600081525061153e565b505050565b600960009054906101000a900473ffffffffffffffffffffffffffffffffffffffff1681565b610c83611afc565b73ffffffffffffffffffffffffffffffffffffffff16610ca161146c565b73ffffffffffffffffffffffffffffffffffffffff1614610cf7576040517f08c379a0000000000000000000000000000000000000000000000000000000008152600401610cee90612fb5565b60405180910390fd5b80600a8190555050565b600b8181548110610d1157600080fd5b90600052602060002090600302016000915090508060000154908060010160009054906101000a900473ffffffffffffffffffffffffffffffffffffffff16908060020154905083565b60606000610d68336110b2565b905060008167ffffffffffffffff811115610dac577f4e487b7100000000000000000000000000000000000000000000000000000000600052604160045260246000fd5b604051908082528060200260200182016040528015610de557816020015b610dd2612594565b815260200190600190039081610dca5790505b509050600080600090505b600b805490508160ff161015610f68573373ffffffffffffffffffffffffffffffffffffffff16610e238260ff16610f72565b73ffffffffffffffffffffffffffffffffffffffff161415610f5557600b8160ff1681548110610e7c577f4e487b7100000000000000000000000000000000000000000000000000000000600052603260045260246000fd5b9060005260206000209060030201604051806060016040529081600082015481526020016001820160009054906101000a900473ffffffffffffffffffffffffffffffffffffffff1673ffffffffffffffffffffffffffffffffffffffff1673ffffffffffffffffffffffffffffffffffffffff168152602001600282015481525050838360ff1681518110610f3b577f4e487b7100000000000000000000000000000000000000000000000000000000600052603260045260246000fd5b60200260200101819052508180610f5190613395565b9250505b8080610f6090613395565b915050610df0565b5081935050505090565b6000806002600084815260200190815260200160002060009054906101000a900473ffffffffffffffffffffffffffffffffffffffff169050600073ffffffffffffffffffffffffffffffffffffffff168173ffffffffffffffffffffffffffffffffffffffff16141561101b576040517f08c379a000000000000000000000000000000000000000000000000000000000815260040161101290612f75565b60405180910390fd5b80915050919050565b60078054611031906132e9565b80601f016020809104026020016040519081016040528092919081815260200182805461105d906132e9565b80156110aa5780601f1061107f576101008083540402835291602001916110aa565b820191906000526020600020905b81548152906001019060200180831161108d57829003601f168201915b505050505081565b60008073ffffffffffffffffffffffffffffffffffffffff168273ffffffffffffffffffffffffffffffffffffffff161415611123576040517f08c379a000000000000000000000000000000000000000000000000000000000815260040161111a90612f55565b60405180910390fd5b600360008373ffffffffffffffffffffffffffffffffffffffff1673ffffffffffffffffffffffffffffffffffffffff168152602001908152602001600020549050919050565b611172611afc565b73ffffffffffffffffffffffffffffffffffffffff1661119061146c565b73ffffffffffffffffffffffffffffffffffffffff16146111e6576040517f08c379a00000000000000000000000000000000000000000000000000000000081526004016111dd90612fb5565b60405180910390fd5b6111f06000611f02565b565b606060006111ff306110b2565b905060008167ffffffffffffffff811115611243577f4e487b7100000000000000000000000000000000000000000000000000000000600052604160045260246000fd5b60405190808252806020026020018201604052801561127c57816020015b611269612594565b8152602001906001900390816112615790505b509050600080600090505b600b805490508160ff16101561146257600073ffffffffffffffffffffffffffffffffffffffff16600b8260ff16815481106112ec577f4e487b7100000000000000000000000000000000000000000000000000000000600052603260045260246000fd5b906000526020600020906003020160010160009054906101000a900473ffffffffffffffffffffffffffffffffffffffff1673ffffffffffffffffffffffffffffffffffffffff161461144f57600b8160ff1681548110611376577f4e487b7100000000000000000000000000000000000000000000000000000000600052603260045260246000fd5b9060005260206000209060030201604051806060016040529081600082015481526020016001820160009054906101000a900473ffffffffffffffffffffffffffffffffffffffff1673ffffffffffffffffffffffffffffffffffffffff1673ffffffffffffffffffffffffffffffffffffffff168152602001600282015481525050838360ff1681518110611435577f4e487b7100000000000000000000000000000000000000000000000000000000600052603260045260246000fd5b6020026020010181905250818061144b90613395565b9250505b808061145a90613395565b915050611287565b5081935050505090565b6000600660009054906101000a900473ffffffffffffffffffffffffffffffffffffffff16905090565b6060600180546114a5906132e9565b80601f01602080910402602001604051908101604052809291908181526020018280546114d1906132e9565b801561151e5780601f106114f35761010080835404028352916020019161151e565b820191906000526020600020905b81548152906001019060200180831161150157829003601f168201915b5050505050905090565b61153a611533611afc565b8383611fc8565b5050565b61154f611549611afc565b83611bbd565b61158e576040517f08c379a000000000000000000000000000000000000000000000000000000000815260040161158590613015565b60405180910390fd5b61159a84848484612135565b50505050565b600a5481565b600880546115b3906132e9565b80601f01602080910402602001604051908101604052809291908181526020018280546115df906132e9565b801561162c5780601f106116015761010080835404028352916020019161162c565b820191906000526020600020905b81548152906001019060200180831161160f57829003601f168201915b505050505081565b606061163f82611a90565b61167e576040517f08c379a000000000000000000000000000000000000000000000000000000000815260040161167590612fd5565b60405180910390fd5b6000611688612191565b905060008151116116a857604051806020016040528060008152506116d3565b806116b284612223565b6040516020016116c3929190612d02565b6040516020818303038152906040525b915050919050565b600a54341461171f576040517f08c379a000000000000000000000000000000000000000000000000000000000815260040161171690612e95565b60405180910390fd5b60008111611762576040517f08c379a000000000000000000000000000000000000000000000000000000000815260040161175990612e15565b60405180910390fd5b33600b838154811061179d577f4e487b7100000000000000000000000000000000000000000000000000000000600052603260045260246000fd5b906000526020600020906003020160010160006101000a81548173ffffffffffffffffffffffffffffffffffffffff021916908373ffffffffffffffffffffffffffffffffffffffff16021790555080600b8381548110611827577f4e487b7100000000000000000000000000000000000000000000000000000000600052603260045260246000fd5b906000526020600020906003020160020181905550611847333084611c9b565b3373ffffffffffffffffffffffffffffffffffffffff16827fb2ba12d2566848b13548a3741edb565b69d3cbce7796959cd67431610207eb138360405161188e9190613035565b60405180910390a35050565b6000600560008473ffffffffffffffffffffffffffffffffffffffff1673ffffffffffffffffffffffffffffffffffffffff16815260200190815260200160002060008373ffffffffffffffffffffffffffffffffffffffff1673ffffffffffffffffffffffffffffffffffffffff16815260200190815260200160002060009054906101000a900460ff16905092915050565b611936611afc565b73ffffffffffffffffffffffffffffffffffffffff1661195461146c565b73ffffffffffffffffffffffffffffffffffffffff16146119aa576040517f08c379a00000000000000000000000000000000000000000000000000000000081526004016119a190612fb5565b60405180910390fd5b600073ffffffffffffffffffffffffffffffffffffffff168173ffffffffffffffffffffffffffffffffffffffff161415611a1a576040517f08c379a0000000000000000000000000000000000000000000000000000000008152600401611a1190612e55565b60405180910390fd5b611a2381611f02565b50565b60007f01ffc9a7000000000000000000000000000000000000000000000000000000007bffffffffffffffffffffffffffffffffffffffffffffffffffffffff1916827bffffffffffffffffffffffffffffffffffffffffffffffffffffffff1916149050919050565b60008073ffffffffffffffffffffffffffffffffffffffff166002600084815260200190815260200160002060009054906101000a900473ffffffffffffffffffffffffffffffffffffffff1673ffffffffffffffffffffffffffffffffffffffff1614159050919050565b600033905090565b816004600083815260200190815260200160002060006101000a81548173ffffffffffffffffffffffffffffffffffffffff021916908373ffffffffffffffffffffffffffffffffffffffff160217905550808273ffffffffffffffffffffffffffffffffffffffff16611b7783610f72565b73ffffffffffffffffffffffffffffffffffffffff167f8c5be1e5ebec7d5bd14f71427d1e84f3dd0314c0f7b2291e5b200ac8c7c3b92560405160405180910390a45050565b6000611bc882611a90565b611c07576040517f08c379a0000000000000000000000000000000000000000000000000000000008152600401611bfe90612ef5565b60405180910390fd5b6000611c1283610f72565b90508073ffffffffffffffffffffffffffffffffffffffff168473ffffffffffffffffffffffffffffffffffffffff161480611c8157508373ffffffffffffffffffffffffffffffffffffffff16611c6984610798565b73ffffffffffffffffffffffffffffffffffffffff16145b80611c925750611c91818561189a565b5b91505092915050565b8273ffffffffffffffffffffffffffffffffffffffff16611cbb82610f72565b73ffffffffffffffffffffffffffffffffffffffff1614611d11576040517f08c379a0000000000000000000000000000000000000000000000000000000008152600401611d0890612e75565b60405180910390fd5b600073ffffffffffffffffffffffffffffffffffffffff168273ffffffffffffffffffffffffffffffffffffffff161415611d81576040517f08c379a0000000000000000000000000000000000000000000000000000000008152600401611d7890612eb5565b60405180910390fd5b611d8c8383836123d0565b611d97600082611b04565b6001600360008573ffffffffffffffffffffffffffffffffffffffff1673ffffffffffffffffffffffffffffffffffffffff1681526020019081526020016000206000828254611de791906131e0565b925050819055506001600360008473ffffffffffffffffffffffffffffffffffffffff1673ffffffffffffffffffffffffffffffffffffffff1681526020019081526020016000206000828254611e3e9190613159565b92505081905550816002600083815260200190815260200160002060006101000a81548173ffffffffffffffffffffffffffffffffffffffff021916908373ffffffffffffffffffffffffffffffffffffffff160217905550808273ffffffffffffffffffffffffffffffffffffffff168473ffffffffffffffffffffffffffffffffffffffff167fddf252ad1be2c89b69c2b068fc378daa952ba7f163c4a11628f55a4df523b3ef60405160405180910390a4611efd8383836123d5565b505050565b6000600660009054906101000a900473ffffffffffffffffffffffffffffffffffffffff16905081600660006101000a81548173ffffffffffffffffffffffffffffffffffffffff021916908373ffffffffffffffffffffffffffffffffffffffff1602179055508173ffffffffffffffffffffffffffffffffffffffff168173ffffffffffffffffffffffffffffffffffffffff167f8be0079c531659141344cd1fd0a4f28419497f9722a3daafe3b4186f6b6457e060405160405180910390a35050565b8173ffffffffffffffffffffffffffffffffffffffff168373ffffffffffffffffffffffffffffffffffffffff161415612037576040517f08c379a000000000000000000000000000000000000000000000000000000000815260040161202e90612ed5565b60405180910390fd5b80600560008573ffffffffffffffffffffffffffffffffffffffff1673ffffffffffffffffffffffffffffffffffffffff16815260200190815260200160002060008473ffffffffffffffffffffffffffffffffffffffff1673ffffffffffffffffffffffffffffffffffffffff16815260200190815260200160002060006101000a81548160ff0219169083151502179055508173ffffffffffffffffffffffffffffffffffffffff168373ffffffffffffffffffffffffffffffffffffffff167f17307eab39ab6107e8899845ad3d59bd9653f200f220920489ca2b5937696c31836040516121289190612dd8565b60405180910390a3505050565b612140848484611c9b565b61214c848484846123da565b61218b576040517f08c379a000000000000000000000000000000000000000000000000000000000815260040161218290612e35565b60405180910390fd5b50505050565b6060600780546121a0906132e9565b80601f01602080910402602001604051908101604052809291908181526020018280546121cc906132e9565b80156122195780601f106121ee57610100808354040283529160200191612219565b820191906000526020600020905b8154815290600101906020018083116121fc57829003601f168201915b5050505050905090565b6060600082141561226b576040518060400160405280600181526020017f300000000000000000000000000000000000000000000000000000000000000081525090506123cb565b600082905060005b6000821461229d5780806122869061334c565b915050600a8261229691906131af565b9150612273565b60008167ffffffffffffffff8111156122df577f4e487b7100000000000000000000000000000000000000000000000000000000600052604160045260246000fd5b6040519080825280601f01601f1916602001820160405280156123115781602001600182028036833780820191505090505b5090505b600085146123c45760018261232a91906131e0565b9150600a8561233991906133bf565b60306123459190613159565b60f81b818381518110612381577f4e487b7100000000000000000000000000000000000000000000000000000000600052603260045260246000fd5b60200101907effffffffffffffffffffffffffffffffffffffffffffffffffffffffffffff1916908160001a905350600a856123bd91906131af565b9450612315565b8093505050505b919050565b505050565b505050565b60006123fb8473ffffffffffffffffffffffffffffffffffffffff16612571565b15612564578373ffffffffffffffffffffffffffffffffffffffff1663150b7a02612424611afc565b8786866040518563ffffffff1660e01b81526004016124469493929190612d41565b602060405180830381600087803b15801561246057600080fd5b505af192505050801561249157506040513d601f19601f8201168201806040525081019061248e919061286c565b60015b612514573d80600081146124c1576040519150601f19603f3d011682016040523d82523d6000602084013e6124c6565b606091505b5060008151141561250c576040517f08c379a000000000000000000000000000000000000000000000000000000000815260040161250390612e35565b60405180910390fd5b805181602001fd5b63150b7a0260e01b7bffffffffffffffffffffffffffffffffffffffffffffffffffffffff1916817bffffffffffffffffffffffffffffffffffffffffffffffffffffffff191614915050612569565b600190505b949350505050565b6000808273ffffffffffffffffffffffffffffffffffffffff163b119050919050565b604051806060016040528060008152602001600073ffffffffffffffffffffffffffffffffffffffff168152602001600081525090565b60006125de6125d9846130ac565b613087565b9050828152602081018484840111156125f657600080fd5b6126018482856132a7565b509392505050565b6000813590506126188161393e565b92915050565b60008135905061262d81613955565b92915050565b6000813590506126428161396c565b92915050565b6000815190506126578161396c565b92915050565b600082601f83011261266e57600080fd5b813561267e8482602086016125cb565b91505092915050565b60008135905061269681613983565b92915050565b6000602082840312156126ae57600080fd5b60006126bc84828501612609565b91505092915050565b600080604083850312156126d857600080fd5b60006126e685828601612609565b92505060206126f785828601612609565b9150509250929050565b60008060006060848603121561271657600080fd5b600061272486828701612609565b935050602061273586828701612609565b925050604061274686828701612687565b9150509250925092565b6000806000806080858703121561276657600080fd5b600061277487828801612609565b945050602061278587828801612609565b935050604061279687828801612687565b925050606085013567ffffffffffffffff8111156127b357600080fd5b6127bf8782880161265d565b91505092959194509250565b600080604083850312156127de57600080fd5b60006127ec85828601612609565b92505060206127fd8582860161261e565b9150509250929050565b6000806040838503121561281a57600080fd5b600061282885828601612609565b925050602061283985828601612687565b9150509250929050565b60006020828403121561285557600080fd5b600061286384828501612633565b91505092915050565b60006020828403121561287e57600080fd5b600061288c84828501612648565b91505092915050565b6000602082840312156128a757600080fd5b60006128b584828501612687565b91505092915050565b600080604083850312156128d157600080fd5b60006128df85828601612687565b92505060206128f085828601612687565b9150509250929050565b60006129068383612ca2565b60608301905092915050565b61291b81613226565b82525050565b61292a81613226565b82525050565b61293981613214565b82525050565b600061294a826130ed565b612954818561311b565b935061295f836130dd565b8060005b8381101561299057815161297788826128fa565b97506129828361310e565b925050600181019050612963565b5085935050505092915050565b6129a681613238565b82525050565b60006129b7826130f8565b6129c1818561312c565b93506129d18185602086016132b6565b6129da816134ac565b840191505092915050565b60006129f082613103565b6129fa818561313d565b9350612a0a8185602086016132b6565b612a13816134ac565b840191505092915050565b6000612a2982613103565b612a33818561314e565b9350612a438185602086016132b6565b80840191505092915050565b6000612a5c60118361313d565b9150612a67826134bd565b602082019050919050565b6000612a7f60328361313d565b9150612a8a826134e6565b604082019050919050565b6000612aa260268361313d565b9150612aad82613535565b604082019050919050565b6000612ac560258361313d565b9150612ad082613584565b604082019050919050565b6000612ae860108361313d565b9150612af3826135d3565b602082019050919050565b6000612b0b60248361313d565b9150612b16826135fc565b604082019050919050565b6000612b2e60198361313d565b9150612b398261364b565b602082019050919050565b6000612b51602c8361313d565b9150612b5c82613674565b604082019050919050565b6000612b7460128361313d565b9150612b7f826136c3565b602082019050919050565b6000612b9760388361313d565b9150612ba2826136ec565b604082019050919050565b6000612bba602a8361313d565b9150612bc58261373b565b604082019050919050565b6000612bdd60298361313d565b9150612be88261378a565b604082019050919050565b6000612c00602c8361313d565b9150612c0b826137d9565b604082019050919050565b6000612c2360208361313d565b9150612c2e82613828565b602082019050919050565b6000612c46602f8361313d565b9150612c5182613851565b604082019050919050565b6000612c6960218361313d565b9150612c74826138a0565b604082019050919050565b6000612c8c60318361313d565b9150612c97826138ef565b604082019050919050565b606082016000820151612cb86000850182612ce4565b506020820151612ccb6020850182612912565b506040820151612cde6040850182612ce4565b50505050565b612ced81613290565b82525050565b612cfc81613290565b82525050565b6000612d0e8285612a1e565b9150612d1a8284612a1e565b91508190509392505050565b6000602082019050612d3b6000830184612930565b92915050565b6000608082019050612d566000830187612930565b612d636020830186612930565b612d706040830185612cf3565b8181036060830152612d8281846129ac565b905095945050505050565b6000604082019050612da26000830185612930565b612daf6020830184612cf3565b9392505050565b60006020820190508181036000830152612dd0818461293f565b905092915050565b6000602082019050612ded600083018461299d565b92915050565b60006020820190508181036000830152612e0d81846129e5565b905092915050565b60006020820190508181036000830152612e2e81612a4f565b9050919050565b60006020820190508181036000830152612e4e81612a72565b9050919050565b60006020820190508181036000830152612e6e81612a95565b9050919050565b60006020820190508181036000830152612e8e81612ab8565b9050919050565b60006020820190508181036000830152612eae81612adb565b9050919050565b60006020820190508181036000830152612ece81612afe565b9050919050565b60006020820190508181036000830152612eee81612b21565b9050919050565b60006020820190508181036000830152612f0e81612b44565b9050919050565b60006020820190508181036000830152612f2e81612b67565b9050919050565b60006020820190508181036000830152612f4e81612b8a565b9050919050565b60006020820190508181036000830152612f6e81612bad565b9050919050565b60006020820190508181036000830152612f8e81612bd0565b9050919050565b60006020820190508181036000830152612fae81612bf3565b9050919050565b60006020820190508181036000830152612fce81612c16565b9050919050565b60006020820190508181036000830152612fee81612c39565b9050919050565b6000602082019050818103600083015261300e81612c5c565b9050919050565b6000602082019050818103600083015261302e81612c7f565b9050919050565b600060208201905061304a6000830184612cf3565b92915050565b60006060820190506130656000830186612cf3565b6130726020830185612921565b61307f6040830184612cf3565b949350505050565b60006130916130a2565b905061309d828261331b565b919050565b6000604051905090565b600067ffffffffffffffff8211156130c7576130c661347d565b5b6130d0826134ac565b9050602081019050919050565b6000819050602082019050919050565b600081519050919050565b600081519050919050565b600081519050919050565b6000602082019050919050565b600082825260208201905092915050565b600082825260208201905092915050565b600082825260208201905092915050565b600081905092915050565b600061316482613290565b915061316f83613290565b9250827fffffffffffffffffffffffffffffffffffffffffffffffffffffffffffffffff038211156131a4576131a36133f0565b5b828201905092915050565b60006131ba82613290565b91506131c583613290565b9250826131d5576131d461341f565b5b828204905092915050565b60006131eb82613290565b91506131f683613290565b925082821015613209576132086133f0565b5b828203905092915050565b600061321f82613270565b9050919050565b600061323182613270565b9050919050565b60008115159050919050565b60007fffffffff0000000000000000000000000000000000000000000000000000000082169050919050565b600073ffffffffffffffffffffffffffffffffffffffff82169050919050565b6000819050919050565b600060ff82169050919050565b82818337600083830152505050565b60005b838110156132d45780820151818401526020810190506132b9565b838111156132e3576000848401525b50505050565b6000600282049050600182168061330157607f821691505b602082108114156133155761331461344e565b5b50919050565b613324826134ac565b810181811067ffffffffffffffff821117156133435761334261347d565b5b80604052505050565b600061335782613290565b91507fffffffffffffffffffffffffffffffffffffffffffffffffffffffffffffffff82141561338a576133896133f0565b5b600182019050919050565b60006133a08261329a565b915060ff8214156133b4576133b36133f0565b5b600182019050919050565b60006133ca82613290565b91506133d583613290565b9250826133e5576133e461341f565b5b828206905092915050565b7f4e487b7100000000000000000000000000000000000000000000000000000000600052601160045260246000fd5b7f4e487b7100000000000000000000000000000000000000000000000000000000600052601260045260246000fd5b7f4e487b7100000000000000000000000000000000000000000000000000000000600052602260045260246000fd5b7f4e487b7100000000000000000000000000000000000000000000000000000000600052604160045260246000fd5b6000601f19601f8301169050919050565b7f5072696365206d757374206265203e2030000000000000000000000000000000600082015250565b7f4552433732313a207472616e7366657220746f206e6f6e20455243373231526560008201527f63656976657220696d706c656d656e7465720000000000000000000000000000602082015250565b7f4f776e61626c653a206e6577206f776e657220697320746865207a65726f206160008201527f6464726573730000000000000000000000000000000000000000000000000000602082015250565b7f4552433732313a207472616e736665722066726f6d20696e636f72726563742060008201527f6f776e6572000000000000000000000000000000000000000000000000000000602082015250565b7f4d7573742070617920726f79616c747900000000000000000000000000000000600082015250565b7f4552433732313a207472616e7366657220746f20746865207a65726f2061646460008201527f7265737300000000000000000000000000000000000000000000000000000000602082015250565b7f4552433732313a20617070726f766520746f2063616c6c657200000000000000600082015250565b7f4552433732313a206f70657261746f7220717565727920666f72206e6f6e657860008201527f697374656e7420746f6b656e0000000000000000000000000000000000000000602082015250565b7f496e73756666696369656e742066756e64730000000000000000000000000000600082015250565b7f4552433732313a20617070726f76652063616c6c6572206973206e6f74206f7760008201527f6e6572206e6f7220617070726f76656420666f7220616c6c0000000000000000602082015250565b7f4552433732313a2062616c616e636520717565727920666f7220746865207a6560008201527f726f206164647265737300000000000000000000000000000000000000000000602082015250565b7f4552433732313a206f776e657220717565727920666f72206e6f6e657869737460008201527f656e7420746f6b656e0000000000000000000000000000000000000000000000602082015250565b7f4552433732313a20617070726f76656420717565727920666f72206e6f6e657860008201527f697374656e7420746f6b656e0000000000000000000000000000000000000000602082015250565b7f4f776e61626c653a2063616c6c6572206973206e6f7420746865206f776e6572600082015250565b7f4552433732314d657461646174613a2055524920717565727920666f72206e6f60008201527f6e6578697374656e7420746f6b656e0000000000000000000000000000000000602082015250565b7f4552433732313a20617070726f76616c20746f2063757272656e74206f776e6560008201527f7200000000000000000000000000000000000000000000000000000000000000602082015250565b7f4552433732313a207472616e736665722063616c6c6572206973206e6f74206f60008201527f776e6572206e6f7220617070726f766564000000000000000000000000000000602082015250565b61394781613214565b811461395257600080fd5b50565b61395e81613238565b811461396957600080fd5b50565b61397581613244565b811461398057600080fd5b50565b61398c81613290565b811461399757600080fd5b5056fea2646970667358221220a6c6d5e7ab5fcc08a6942b5f2964a4bdcede8a914a6f50580c78399a199e0bda64736f6c6343000804003368747470733a2f2f6261667962656966643563726d796f3363616b6972347071336c676e6b78646d3574787a706c32766132367a72766e656c627979323537693677692e697066732e6e667473746f726167652e6c696e6b2f",
  "linkReferences": {},
  "deployedLinkReferences": {}
}